:020000040000fa
:080000000001040000000000f3
:020000040000fa
:100200006f8620000e7922000e0188000000000099
:100210000c000700205520000100200011000700fd
:10022000000020000000e000020032000000020098
:1002300000000000ce030200000000000040da00d1
:100240000000fe004440a900000020000000e00083
:100250000300320000002000a00188004440a800f4
:100260000000060091018800800078000000eb008b
:1002700015003700e280400032a0b4009101ba00be
:10028000e280400032a0b4009102ba00e280400057
:1002900032a0b4000002eb00472bde00f507b200ed
:1002a000602ce10004003a000059eb008301e900f2
:1002b000fdff3e00040037006128e100010032002c
:1002c0000082eb00040007001101ba000200e00008
:1002d000e8ff3a00000006003159ba008301e90046
:1002e0000c0032002159ba008301e90008003200f5
:1002f0000400e00003003a00e280400032a0b400b5
:10030000f5ff370011d9ba008301e900faff3a007e
:100310008100e800e180400032a0b4000000060047
:10032000ff3ffc00774180008841800099418000b8
:100330000900440001002400f40102000000000054
:100340000080530051552500f40102000000000018
:100350008003780009005400719e2400f40102001b
:100360000000000000047800070078008140800051
:10037000f40102000000000080047800080078000a
:1003800071408000f4010200000000000080440081
:10039000a04188000800780081408000f40102003c
:1003a00000000000800478000700780071408000a1
:1003b000f40102000000000000805400b0418800f9
:1003c0000000fc000000060030158800a022a800f4
:1003d000a002ae00feff3700a002aa0000148000b9
:1003e0004100de0000000600000278008102780073
:1003f0001301c0004100c800f60020000600c8003c
:100400001001800000000600ff3ffc0001005000ca
:1004100092020200000000000002780082027800d0
:100420001301c0004100c8004c020200000000009f
:100430009202020000000000000478006940800081
:100440000900420092020200000000000002780051
:1004500060408800830278001301c0004100c8009a
:100460004c020200000000009202020000000000a6
:1004700080047800090044002a4080003b4080004e
:100480000a80e6000a0078000b00e6000b00780006
:100490004380de002e0037004220ef0060026a0039
:1004a0000a0033002a0180000a00e00018003a0028
:1004b0001a0180000a00e000180032000200090062
:1004c0004555de0012003a00140037002a01800072
:1004d000fbff2f000a00e00001003a000f00370088
:1004e0000b50e10007003a001a0180000a00e0000a
:1004f0000a003200020009004555de00010032000a
:10050000060037001a0228001a018800030037008d
:10051000fafd27001a018800000037001001800052
:1005200000000600fafd23001b022c000a00e10077
:1005300003003d000b00e10003003400030037001e
:100540000a007800010037000b0078000000060068
:100550000000fc0000000600ff3ffc00454080005a
:100560007041800005004000d00202000000000041
:10057000b00e88008041800005004000d0020200db
:1005800000000000c00e880090418000050040007f
:10059000d002020000000000d00e880004003700e6
:1005a0000000e00001003c00000020000000060008
:1005b0000000fc00000006000600fa00200798007a
:1005c0000000eb00000f78000c0037000000eb008b
:1005d00010079800040037000060fe001e00900025
:1005e0000000e800100798009e009000e0822600be
:1005f000808f5000f8ff36001e0fe8002e0090009c
:100600009e0f1000f1ff39000080fa000000060084
:100610000000fa00e402a900e422a900e442a900d3
:10062000e462a900e4c2a900011c20009140780006
:10063000c0cfb30000c060000014a000c0e1b7004c
:10064000210e80000000280000806000116f200053
:1006500001007000200e8800c801a900c821a9006f
:10066000c841a900c881a900c8a1a900c8c1a900a2
:10067000ca41a900ccc1bf00f043b20001c8b30019
:1006800001407000cce1b700c11c2000914078000f
:1006900000ccb30000c06000a040b300cce1b700c4
:1006a000d201a900d221a900d241a90030de200048
:1006b0001008880005e1a900205320006008880088
:1006c00011e1a900c00d25007008880013e1a90000
:1006d00040032d00d00888001fe1a90030de200073
:1006e000e008880021e1a900012a2000914078005b
:1006f00000ceb30000c07000a0e2b700a062a90065
:10070000112a200091407800c0cfb30000c06000e3
:100710000014a000a1e2b7000000eb001015880053
:10072000512a20009140780000ceb30000c0600044
:100730000014a000a5e2b700412a200091407800f3
:1007400000ccb30000c060005040b300a4e2b7008a
:1007500030012800401588000000eb00501588008b
:10076000a1e2a80081e0a900aac0bf007040b300c8
:10077000aae0b7008c60a8005109200091407800e1
:10078000f0c8b30000c0600001c6b30001407000b3
:1007900095e0b7000080fa00000006000000fa00b3
:1007a0009bff07007800070084c0bf000044b20030
:1007b0000004e0000e003200ff3ffc0041408000da
:1007c0007040800008ff07007041880041408000b1
:1007d0008040800004ff0700804188000000eb009b
:1007e000904188000000fc005bff070084c0a90066
:1007f00084c0bf0001c8b300014060000004e000f5
:1008000037003200ff3ffc0050502000eefe070092
:100810008000780000408000008050007041880017
:1008200060602000e8fe0700800078000040800043
:10083000008050008041880070702000e2fe0700b8
:1008400080007800004080000080500090418800c7
:100850000000fc00b2fe0700a0418000404188007b
:10086000204380007042880091428000b0418000a7
:1008700074000700204388003041800060408800f9
:1008800020418000124180002143800080017800d7
:100890000000eb00dcfe07003041880031418000a1
:1008a000c0408000d0fe0700304188003141800008
:1008b000a0408000808f500002003500a0408000e2
:1008c0003041880031418000b0408000808f50006e
:1008d00002003c00b04080003041880084e0a90064
:1008e0000060fe00b0ff370000a0fe003600f800f8
:1008f000849fbe00869fbe000000fa003141800048
:10090000c0408000008040009040880090408000ff
:100910006101b900d0408000e14080000200400049
:1009200083804800d0408800e1408800d2408000a9
:10093000e3408000f040800001418000800f5100c2
:10094000818f5900080035000000eb0070408800de
:1009500040eb2700804088006000b800d04088004d
:10096000e1408800010037003e0007008460a900d4
:100970000080fa004f03be004f02be003600f900af
:100980000080fe00004006000000fa00200e8000fb
:1009900040408800200e80000000ea00504088009f
:1009a000404080004300dd0020408800414080003e
:1009b00080ff2f000088b900304088000000eb0065
:1009c000400e8800c1e1a9000000eb00900e8800f5
:1009d000e0012000f8fe0700a1e2a800e0e020000e
:1009e00079fe07000040880040408000b00e88007b
:1009f00040408000c00e880040408000d00e88003b
:100a0000e642a80040012000ebfe0700e662a800d5
:100a100040012000e8fe0700e6c2a80040012000d7
:100a2000e5fe070070072000400e8800c1e1a80025
:100a300005e1a80011e1a80013e1a8000080fa0078
:100a400000000600ff3ffc007242800002005000e0
:100a5000f401020000000000020040000000fc0061
:100a600000000600ff3ffc007940800080408000cd
:100a700091408000f401020000000000008044006a
:100a8000704088008940800091408000f40102009d
:100a90000000000000805400804088000000fc003e
:040aa000000006004c
:020000040000fa
:0200000401f009
:04000000f7ff000006
:020000040000fa
:0200000401f009
:04000400c0ff000039
:020000040000fa
:0200000401f009
:04000800dfff000016
:020000040000fa
:100008009e0500009e0500009e0500009e0500005c
:100018009e0500009e0500009e0500009e0500004c
:100028009e0500009e0500009e0500007404000067
:100038009e0500009e0500009e0500009e0500002c
:100048009e0500009e0500009e0500009e0500001c
:100058009e0500009e0500009e0500009e0500000c
:100068009e0500009e0500009e0500009e050000fc
:100078009e0500009e0500009e0500009e050000ec
:100088009e0500009e0500009e0500009e050000dc
:100098009e0500009e0500009e0500009e050000cc
:1000a8009e0500009e0500009e0500009e050000bc
:1000b8009e0500009e0500009e0500009e050000ac
:1000c8009e0500009e0500009e0500009e0500009c
:1000d8009e0500009e0500009e0500009e0500008c
:1000e8009e0500009e0500009e0500009e0500007c
:0800f8009e0500009e050000ba
:020000040000fa
:100108009e0500009e0500009e0500009e0500005b
:100118009e0500009e0500009e0500009e0500004b
:100128009e0500009e0500009e0500007404000066
:100138009e0500009e0500009e0500009e0500002b
:100148009e0500009e0500009e0500009e0500001b
:100158009e0500009e0500009e0500009e0500000b
:100168009e0500009e0500009e0500009e050000fb
:100178009e0500009e0500009e0500009e050000eb
:100188009e0500009e0500009e0500009e050000db
:100198009e0500009e0500009e0500009e050000cb
:1001a8009e0500009e0500009e0500009e050000bb
:1001b8009e0500009e0500009e0500009e050000ab
:1001c8009e0500009e0500009e0500009e0500009b
:1001d8009e0500009e0500009e0500009e0500008b
:1001e8009e0500009e0500009e0500009e0500007b
:0801f8009e0500009e050000b9
:020000040000fa
:100aa40000080000660000000200000000000e00c4
:100ab40074000000000000000000000000000000be
:100ac40000b47e0000002d0000d3ff005c05000090
:100ad40000000000e82303000012000003000000ef
:100ae4000000000000000000000000000000000002
:100af40000000000000009000003000000000000e6
:100b04000000000036f75000789411006cee590094
:100b1400f5a70a000000b40000760200760228005f
:100b2400230000000000000000ea060016f900009f
:080b34000000000000000000b9
:020000040000fa
:080b3c000040da000000fe0099
:00000001FF
